{
  "contractName": "DonateETH",
  "abi": [
    {
      "constant": true,
      "inputs": [],
      "name": "SZABO_PER_WEI",
      "outputs": [
        {
          "name": "",
          "type": "uint256"
        }
      ],
      "payable": false,
      "stateMutability": "view",
      "type": "function"
    },
    {
      "constant": true,
      "inputs": [],
      "name": "owner",
      "outputs": [
        {
          "name": "",
          "type": "address"
        }
      ],
      "payable": false,
      "stateMutability": "view",
      "type": "function"
    },
    {
      "constant": true,
      "inputs": [
        {
          "name": "",
          "type": "uint256"
        }
      ],
      "name": "ExchangeUserList",
      "outputs": [
        {
          "name": "user",
          "type": "address"
        },
        {
          "name": "token",
          "type": "uint256"
        }
      ],
      "payable": false,
      "stateMutability": "view",
      "type": "function"
    },
    {
      "constant": true,
      "inputs": [],
      "name": "token",
      "outputs": [
        {
          "name": "",
          "type": "address"
        }
      ],
      "payable": false,
      "stateMutability": "view",
      "type": "function"
    },
    {
      "inputs": [
        {
          "name": "_token",
          "type": "address"
        }
      ],
      "payable": false,
      "stateMutability": "nonpayable",
      "type": "constructor"
    },
    {
      "payable": true,
      "stateMutability": "payable",
      "type": "fallback"
    },
    {
      "anonymous": false,
      "inputs": [
        {
          "indexed": true,
          "name": "_sender",
          "type": "address"
        },
        {
          "indexed": false,
          "name": "_message",
          "type": "string"
        },
        {
          "indexed": false,
          "name": "_value",
          "type": "uint256"
        },
        {
          "indexed": false,
          "name": "_token",
          "type": "uint256"
        }
      ],
      "name": "ev_DonateWithMessage",
      "type": "event"
    },
    {
      "constant": true,
      "inputs": [],
      "name": "getcontractowner",
      "outputs": [
        {
          "name": "",
          "type": "address"
        }
      ],
      "payable": false,
      "stateMutability": "view",
      "type": "function"
    },
    {
      "constant": true,
      "inputs": [
        {
          "name": "_owner",
          "type": "address"
        }
      ],
      "name": "balanceOf",
      "outputs": [
        {
          "name": "",
          "type": "uint256"
        }
      ],
      "payable": false,
      "stateMutability": "view",
      "type": "function"
    },
    {
      "constant": false,
      "inputs": [],
      "name": "WantExchange",
      "outputs": [],
      "payable": false,
      "stateMutability": "nonpayable",
      "type": "function"
    },
    {
      "constant": false,
      "inputs": [
        {
          "name": "message",
          "type": "string"
        }
      ],
      "name": "DonateWithMessage",
      "outputs": [],
      "payable": true,
      "stateMutability": "payable",
      "type": "function"
    },
    {
      "constant": false,
      "inputs": [],
      "name": "getNowDonateValue",
      "outputs": [
        {
          "name": "",
          "type": "uint256"
        }
      ],
      "payable": false,
      "stateMutability": "nonpayable",
      "type": "function"
    }
  ],
  "bytecode": "0x608060405234801561001057600080fd5b5060405160208061074683398101806040528101908080519060200190929190505050600073ffffffffffffffffffffffffffffffffffffffff168173ffffffffffffffffffffffffffffffffffffffff161415151561006f57600080fd5b80600260006101000a81548173ffffffffffffffffffffffffffffffffffffffff021916908373ffffffffffffffffffffffffffffffffffffffff160217905550336000806101000a81548173ffffffffffffffffffffffffffffffffffffffff021916908373ffffffffffffffffffffffffffffffffffffffff16021790555050610646806101006000396000f300608060405260043610610099576000357c0100000000000000000000000000000000000000000000000000000000900463ffffffff1680630478ef4b1461009b57806351ad5168146100c657806370a082311461011d57806384654ae3146101745780638da5cb5b146101a25780639cde5efb146101f9578063a8d8080a1461026d578063ca741d6814610284578063fc0c546a146102af575b005b3480156100a757600080fd5b506100b0610306565b6040518082815260200191505060405180910390f35b3480156100d257600080fd5b506100db610311565b604051808273ffffffffffffffffffffffffffffffffffffffff1673ffffffffffffffffffffffffffffffffffffffff16815260200191505060405180910390f35b34801561012957600080fd5b5061015e600480360381019080803573ffffffffffffffffffffffffffffffffffffffff16906020019092919050505061033a565b6040518082815260200191505060405180910390f35b6101a060048036038101908080359060200190820180359060200191909192939192939050505061043b565b005b3480156101ae57600080fd5b506101b761055b565b604051808273ffffffffffffffffffffffffffffffffffffffff1673ffffffffffffffffffffffffffffffffffffffff16815260200191505060405180910390f35b34801561020557600080fd5b5061022460048036038101908080359060200190929190505050610580565b604051808373ffffffffffffffffffffffffffffffffffffffff1673ffffffffffffffffffffffffffffffffffffffff1681526020018281526020019250505060405180910390f35b34801561027957600080fd5b506102826105d3565b005b34801561029057600080fd5b506102996105d5565b6040518082815260200191505060405180910390f35b3480156102bb57600080fd5b506102c46105f4565b604051808273ffffffffffffffffffffffffffffffffffffffff1673ffffffffffffffffffffffffffffffffffffffff16815260200191505060405180910390f35b662386f26fc1000081565b60008060009054906101000a900473ffffffffffffffffffffffffffffffffffffffff16905090565b6000600260009054906101000a900473ffffffffffffffffffffffffffffffffffffffff1673ffffffffffffffffffffffffffffffffffffffff166370a08231836040518263ffffffff167c0100000000000000000000000000000000000000000000000000000000028152600401808273ffffffffffffffffffffffffffffffffffffffff1673ffffffffffffffffffffffffffffffffffffffff168152602001915050602060405180830381600087803b1580156103f957600080fd5b505af115801561040d573d6000803e3d6000fd5b505050506040513d602081101561042357600080fd5b81019080805190602001909291905050509050919050565b6000806000600260149054906101000a900460ff1615151561045c57600080fd5b3492508291506064601e840281151561047157fe5b0490506000809054906101000a900473ffffffffffffffffffffffffffffffffffffffff1673ffffffffffffffffffffffffffffffffffffffff166108fc829081150290604051600060405180830381858888f193505050501580156104db573d6000803e3d6000fd5b503373ffffffffffffffffffffffffffffffffffffffff167f48287cf0da561e0b804f1aaaffb3bcbdf1e64f75838fa62147c854e3abc7ba2f868634866040518080602001848152602001838152602001828103825286868281815260200192508082843782019150509550505050505060405180910390a25050505050565b6000809054906101000a900473ffffffffffffffffffffffffffffffffffffffff1681565b60038181548110151561058f57fe5b90600052602060002090600202016000915090508060000160009054906101000a900473ffffffffffffffffffffffffffffffffffffffff16908060010154905082565b565b60003073ffffffffffffffffffffffffffffffffffffffff1631905090565b600260009054906101000a900473ffffffffffffffffffffffffffffffffffffffff16815600a165627a7a7230582099d867a5640c4b4346bac4d7a06b55ae392b5dc6129b7cbb6a47b0f120b6b38f0029",
  "source": "pragma solidity 0.4.24;\r\n//pragma solidity >=0.4.25 <0.6.0;\r\n\r\n//pragma experimental ABIEncoderV2;\r\n\r\nimport './DonToken.sol';\r\nimport './math/SafeMath.sol';\r\n\r\ncontract DonateETH {\r\n    using SafeMath for uint256;\r\n    address public owner;\r\n\r\n    uint256 canDonateValue;\r\n    uint public constant SZABO_PER_WEI = 10000000000000000; //  0^16 개ㅑ 0.01 ether = 1 token \r\n\r\n    //uint256 box_idx = 0;\r\n    //uint[] public boxlist ;\r\n    \r\n    DonToken public token;\r\n\r\n    bool private closed;\r\n    \r\n    event ev_DonateWithMessage(address indexed _sender , string _message , uint _value , uint _token);\r\n\r\n    //event ev_GetABox(address indexed _getter , uint256 _boxid , uint256 _value , uint256 _takevalue);\r\n    \r\n    struct ExchangeUserInfo {\r\n     //   uint    AboxNum;\r\n        address    user;\r\n        uint256    token;\r\n        //string  message;\r\n    }\r\n\r\n    ExchangeUserInfo[] public ExchangeUserList;\r\n    \r\n    //mapping (uint => ABoxInfo ) boxtest;\r\n    constructor(DonToken _token) {\r\n        require(address(_token) != address(0));\r\n        token = _token;\r\n        //require(_token.owner != msg.sender);\r\n        owner = msg.sender;\r\n        //canDonateValue = 10000000000000000; // 0.01 ether 0이 16개 \r\n    }\r\n    \r\n    modifier onlyOwner() {\r\n        require(owner == msg.sender);\r\n        _;\r\n    }\r\n    \r\n     function getcontractowner() public view returns (address) {\r\n        return owner;\r\n    }\r\n\r\n    function balanceOf(address _owner) public view returns (uint256) {\r\n        return token.balanceOf(_owner);\r\n        //return balances[_owner];\r\n    }\r\n    \r\n    \r\n    /*\r\n    function ownerbalanceOf() public view returns (uint256) {\r\n        return token.balanceOf(owner);\r\n    }\r\n    \r\n    function balanceOf(address _owner) public view returns (uint256) {\r\n        return token.balanceOf(_owner);\r\n    }\r\n    function TestReturn() public view returns(uint256) {\r\n        return 12345;\r\n        \r\n    }\r\n    */\r\n    function WantExchange() public  {\r\n        \r\n    }\r\n    function() external payable {\r\n        \r\n    }\r\n\r\n    function DonateWithMessage(string message) external payable {\r\n        require(!closed);\r\n\r\n        uint256 amount = msg.value;\r\n       \r\n        //uint256 tokencnt = amount.div(10); // 받은 ether 에 10 뺴서 토큰을 줄까 했는데 그냥 줘도될듯?\r\n        uint256 tokencnt = amount;\r\n\r\n        // token 준다\r\n        \r\n        //token.TokenAdd(msg.sender  , tokencnt);\r\n        //token.transfer(msg.sender , tokencnt);\r\n        //token.transfertoken(msg.sender , tokencnt); // 토큰 준다  owner 가 갖고있는 토큰 주려는데 왜 안되는가\r\n        //token.transferFrom(contractowner , msg.sender , tokencnt); // 토큰 준다  owner 가 갖고있는 토큰 주려는데 왜 안되는가\r\n        //token.approve(contractowner , tokencnt);\r\n\r\n        //token.transferFrom(contractowner , msg.sender , tokencnt);\r\n\r\n        uint256 serverfee = (amount * 30) / 100;  // 수수료 30% 먹는다 \r\n        \r\n        owner.transfer(serverfee); // 수수료 owner 에 전송\r\n        \r\n        emit ev_DonateWithMessage( msg.sender , message , msg.value , tokencnt);\r\n    }\r\n\r\n    //현재 컨트랙트에 들어있는 이더 \r\n    function getNowDonateValue() public returns(uint256) {\r\n        return   address(this).balance;\r\n    }\r\n/*\r\n    function giveABox(address _from , string message) payable {\r\n    \r\n        uint256 amount = msg.value;\r\n        \r\n        ABoxInfo memory boxinfo = ABoxInfo(_from , amount);\r\n        \r\n        var _id = ABoxList.push(boxinfo);\r\n\r\n        uint256 tokencnt = amount.div(SZABO_PER_WEI);\r\n       \r\n        token.tokenadd(_from , tokencnt);\r\n\r\n        emit ev_GiveABoxFromDonator(_id , msg.sender , message , msg.value , tokencnt);\r\n        \r\n    }\r\n\r\n    function takeBox(address _getaddress , uint256 _boxid , uint256 _wei) public onlyOwner returns (bool) {\r\n\r\n        uint256 amount = _wei;\r\n\r\n        address donator = ABoxList[_boxid].donator;\r\n        uint256 boxvalue = ABoxList[_boxid].value;\r\n        \r\n        uint256 takevalue = boxvalue.sub(9);\r\n                \r\n        _getaddress.transfer(amount);\r\n\r\n        emit ev_GetABox(_getaddress , _boxid , amount , takevalue);\r\n       \r\n    }\r\n\r\n    function getABoxInfo(uint256 _id) public view returns (address , uint256) {\r\n\r\n        return (ABoxList[_id].donator , ABoxList[_id].value);\r\n    }\r\n    */\r\n}",
  "sourcePath": "D:/WorkSpace/ETH/DonFromEtherProject/contracts/DonateETH.sol",
  "compiler": {
    "name": "solc",
    "version": "0.4.24+commit.e67f0147.Emscripten.clang"
  },
  "schemaVersion": "3.0.6",
  "updatedAt": "2019-06-04T12:17:40.881Z",
  "devdoc": {
    "methods": {}
  },
  "userdoc": {
    "methods": {}
  }
}