{
  "contractName": "DonToken",
  "abi": [
    {
      "constant": true,
      "inputs": [],
      "name": "name",
      "outputs": [
        {
          "name": "",
          "type": "string"
        }
      ],
      "payable": false,
      "stateMutability": "view",
      "type": "function",
      "signature": "0x06fdde03"
    },
    {
      "constant": true,
      "inputs": [],
      "name": "totalSupply",
      "outputs": [
        {
          "name": "",
          "type": "uint256"
        }
      ],
      "payable": false,
      "stateMutability": "view",
      "type": "function",
      "signature": "0x18160ddd"
    },
    {
      "constant": true,
      "inputs": [],
      "name": "INITIAL_SUPPLY",
      "outputs": [
        {
          "name": "",
          "type": "uint256"
        }
      ],
      "payable": false,
      "stateMutability": "view",
      "type": "function",
      "signature": "0x2ff2e9dc"
    },
    {
      "constant": true,
      "inputs": [],
      "name": "decimals",
      "outputs": [
        {
          "name": "",
          "type": "uint8"
        }
      ],
      "payable": false,
      "stateMutability": "view",
      "type": "function",
      "signature": "0x313ce567"
    },
    {
      "constant": false,
      "inputs": [
        {
          "name": "_spender",
          "type": "address"
        },
        {
          "name": "_subtractedValue",
          "type": "uint256"
        }
      ],
      "name": "decreaseApproval",
      "outputs": [
        {
          "name": "",
          "type": "bool"
        }
      ],
      "payable": false,
      "stateMutability": "nonpayable",
      "type": "function",
      "signature": "0x66188463"
    },
    {
      "constant": true,
      "inputs": [],
      "name": "tradeYN",
      "outputs": [
        {
          "name": "",
          "type": "bool"
        }
      ],
      "payable": false,
      "stateMutability": "view",
      "type": "function",
      "signature": "0x8d289a71"
    },
    {
      "constant": true,
      "inputs": [],
      "name": "symbol",
      "outputs": [
        {
          "name": "",
          "type": "string"
        }
      ],
      "payable": false,
      "stateMutability": "view",
      "type": "function",
      "signature": "0x95d89b41"
    },
    {
      "constant": false,
      "inputs": [
        {
          "name": "_spender",
          "type": "address"
        },
        {
          "name": "_addedValue",
          "type": "uint256"
        }
      ],
      "name": "increaseApproval",
      "outputs": [
        {
          "name": "",
          "type": "bool"
        }
      ],
      "payable": false,
      "stateMutability": "nonpayable",
      "type": "function",
      "signature": "0xd73dd623"
    },
    {
      "inputs": [],
      "payable": false,
      "stateMutability": "nonpayable",
      "type": "constructor",
      "signature": "constructor"
    },
    {
      "anonymous": false,
      "inputs": [
        {
          "indexed": true,
          "name": "_sender",
          "type": "address"
        },
        {
          "indexed": false,
          "name": "_message",
          "type": "string"
        },
        {
          "indexed": false,
          "name": "_value",
          "type": "uint256"
        },
        {
          "indexed": false,
          "name": "_token",
          "type": "uint256"
        }
      ],
      "name": "ev_DonateWithMessage",
      "type": "event",
      "signature": "0x48287cf0da561e0b804f1aaaffb3bcbdf1e64f75838fa62147c854e3abc7ba2f"
    },
    {
      "anonymous": false,
      "inputs": [
        {
          "indexed": true,
          "name": "_sender",
          "type": "address"
        },
        {
          "indexed": false,
          "name": "_value",
          "type": "uint256"
        },
        {
          "indexed": false,
          "name": "_id",
          "type": "uint256"
        }
      ],
      "name": "ev_RequestExchangeToETH",
      "type": "event",
      "signature": "0x15aedf11553e87ebb5f512bc353921d92a31a3906c5a8b42e0eb5f6bf0c3f484"
    },
    {
      "anonymous": false,
      "inputs": [
        {
          "indexed": true,
          "name": "_sender",
          "type": "address"
        },
        {
          "indexed": false,
          "name": "_value",
          "type": "uint256"
        },
        {
          "indexed": false,
          "name": "_exchangevalue",
          "type": "uint256"
        },
        {
          "indexed": false,
          "name": "_id",
          "type": "uint256"
        }
      ],
      "name": "ev_PopExchangeUserFirst",
      "type": "event",
      "signature": "0xb7a5bd0c2114f6cda9f1a6df2d4d1cf558f8e064d0f32e9c657050d2e822d844"
    },
    {
      "anonymous": false,
      "inputs": [
        {
          "indexed": true,
          "name": "owner",
          "type": "address"
        },
        {
          "indexed": true,
          "name": "spender",
          "type": "address"
        },
        {
          "indexed": false,
          "name": "value",
          "type": "uint256"
        }
      ],
      "name": "Approval",
      "type": "event",
      "signature": "0x8c5be1e5ebec7d5bd14f71427d1e84f3dd0314c0f7b2291e5b200ac8c7c3b925"
    },
    {
      "anonymous": false,
      "inputs": [
        {
          "indexed": true,
          "name": "from",
          "type": "address"
        },
        {
          "indexed": true,
          "name": "to",
          "type": "address"
        },
        {
          "indexed": false,
          "name": "value",
          "type": "uint256"
        }
      ],
      "name": "Transfer",
      "type": "event",
      "signature": "0xddf252ad1be2c89b69c2b068fc378daa952ba7f163c4a11628f55a4df523b3ef"
    },
    {
      "constant": true,
      "inputs": [],
      "name": "GetOwner",
      "outputs": [
        {
          "name": "",
          "type": "address"
        }
      ],
      "payable": false,
      "stateMutability": "view",
      "type": "function",
      "signature": "0x0ae50a39"
    },
    {
      "constant": true,
      "inputs": [],
      "name": "Getpercentserverfee",
      "outputs": [
        {
          "name": "",
          "type": "uint8"
        }
      ],
      "payable": false,
      "stateMutability": "view",
      "type": "function",
      "signature": "0xb1a75652"
    },
    {
      "constant": false,
      "inputs": [
        {
          "name": "percent",
          "type": "uint8"
        }
      ],
      "name": "Setpercentserverfee",
      "outputs": [
        {
          "name": "",
          "type": "bool"
        }
      ],
      "payable": false,
      "stateMutability": "nonpayable",
      "type": "function",
      "signature": "0x33e41945"
    },
    {
      "constant": true,
      "inputs": [],
      "name": "GetexchangeETHpercent",
      "outputs": [
        {
          "name": "",
          "type": "uint8"
        }
      ],
      "payable": false,
      "stateMutability": "view",
      "type": "function",
      "signature": "0xe000562e"
    },
    {
      "constant": false,
      "inputs": [
        {
          "name": "percent",
          "type": "uint8"
        }
      ],
      "name": "SetexchangeETHpercent",
      "outputs": [
        {
          "name": "",
          "type": "bool"
        }
      ],
      "payable": false,
      "stateMutability": "nonpayable",
      "type": "function",
      "signature": "0xf5df4cbd"
    },
    {
      "constant": true,
      "inputs": [],
      "name": "GetServerManager",
      "outputs": [
        {
          "name": "",
          "type": "address"
        }
      ],
      "payable": false,
      "stateMutability": "view",
      "type": "function",
      "signature": "0xc84a8726"
    },
    {
      "constant": false,
      "inputs": [
        {
          "name": "_newmanager",
          "type": "address"
        }
      ],
      "name": "ChangeServerManager",
      "outputs": [
        {
          "name": "",
          "type": "bool"
        }
      ],
      "payable": false,
      "stateMutability": "nonpayable",
      "type": "function",
      "signature": "0x9a9f0c8a"
    },
    {
      "constant": true,
      "inputs": [
        {
          "name": "_owner",
          "type": "address"
        }
      ],
      "name": "balanceOf",
      "outputs": [
        {
          "name": "",
          "type": "uint256"
        }
      ],
      "payable": false,
      "stateMutability": "view",
      "type": "function",
      "signature": "0x70a08231"
    },
    {
      "constant": false,
      "inputs": [
        {
          "name": "message",
          "type": "string"
        }
      ],
      "name": "DonateWithMessage",
      "outputs": [],
      "payable": true,
      "stateMutability": "payable",
      "type": "function",
      "signature": "0x84654ae3"
    },
    {
      "constant": false,
      "inputs": [
        {
          "name": "to",
          "type": "address"
        },
        {
          "name": "value",
          "type": "uint256"
        }
      ],
      "name": "transfer",
      "outputs": [
        {
          "name": "",
          "type": "bool"
        }
      ],
      "payable": false,
      "stateMutability": "nonpayable",
      "type": "function",
      "signature": "0xa9059cbb"
    },
    {
      "constant": false,
      "inputs": [
        {
          "name": "_value",
          "type": "uint256"
        }
      ],
      "name": "RequestExchangeToETH",
      "outputs": [
        {
          "name": "",
          "type": "bool"
        }
      ],
      "payable": false,
      "stateMutability": "nonpayable",
      "type": "function",
      "signature": "0x3d4f5f7f"
    },
    {
      "constant": true,
      "inputs": [
        {
          "name": "_id",
          "type": "uint256"
        }
      ],
      "name": "GetExchangeUser",
      "outputs": [
        {
          "name": "",
          "type": "address"
        },
        {
          "name": "",
          "type": "uint256"
        }
      ],
      "payable": false,
      "stateMutability": "view",
      "type": "function",
      "signature": "0x4e7ffd79"
    },
    {
      "constant": true,
      "inputs": [],
      "name": "GetExchangeUserLastIdx",
      "outputs": [
        {
          "name": "",
          "type": "uint256"
        }
      ],
      "payable": false,
      "stateMutability": "view",
      "type": "function",
      "signature": "0xd0898a05"
    },
    {
      "constant": true,
      "inputs": [],
      "name": "GetExchangeUserFirstIdx",
      "outputs": [
        {
          "name": "",
          "type": "uint256"
        }
      ],
      "payable": false,
      "stateMutability": "view",
      "type": "function",
      "signature": "0x20784bf5"
    },
    {
      "constant": true,
      "inputs": [],
      "name": "GetExchangeUserFirst",
      "outputs": [
        {
          "name": "",
          "type": "address"
        },
        {
          "name": "",
          "type": "uint256"
        }
      ],
      "payable": false,
      "stateMutability": "view",
      "type": "function",
      "signature": "0xfa2a9c73"
    },
    {
      "constant": true,
      "inputs": [],
      "name": "GetExchangeUserLast",
      "outputs": [
        {
          "name": "",
          "type": "address"
        },
        {
          "name": "",
          "type": "uint256"
        }
      ],
      "payable": false,
      "stateMutability": "view",
      "type": "function",
      "signature": "0x78aa11c5"
    },
    {
      "constant": false,
      "inputs": [],
      "name": "PopExchangeUserFirst",
      "outputs": [
        {
          "name": "",
          "type": "address"
        },
        {
          "name": "",
          "type": "uint256"
        }
      ],
      "payable": false,
      "stateMutability": "nonpayable",
      "type": "function",
      "signature": "0xe33c8759"
    },
    {
      "constant": false,
      "inputs": [],
      "name": "getNowDonateValue",
      "outputs": [
        {
          "name": "",
          "type": "uint256"
        }
      ],
      "payable": false,
      "stateMutability": "nonpayable",
      "type": "function",
      "signature": "0xca741d68"
    },
    {
      "constant": true,
      "inputs": [
        {
          "name": "_owner",
          "type": "address"
        },
        {
          "name": "spender",
          "type": "address"
        }
      ],
      "name": "allowance",
      "outputs": [
        {
          "name": "",
          "type": "uint256"
        }
      ],
      "payable": false,
      "stateMutability": "view",
      "type": "function",
      "signature": "0xdd62ed3e"
    },
    {
      "constant": false,
      "inputs": [
        {
          "name": "from",
          "type": "address"
        },
        {
          "name": "to",
          "type": "address"
        },
        {
          "name": "value",
          "type": "uint256"
        }
      ],
      "name": "transferFrom",
      "outputs": [
        {
          "name": "",
          "type": "bool"
        }
      ],
      "payable": false,
      "stateMutability": "nonpayable",
      "type": "function",
      "signature": "0x23b872dd"
    },
    {
      "constant": false,
      "inputs": [
        {
          "name": "spender",
          "type": "address"
        },
        {
          "name": "value",
          "type": "uint256"
        }
      ],
      "name": "approve",
      "outputs": [
        {
          "name": "",
          "type": "bool"
        }
      ],
      "payable": false,
      "stateMutability": "nonpayable",
      "type": "function",
      "signature": "0x095ea7b3"
    }
  ],
  "bytecode": "0x6080604052600160085560006009556001600a60006101000a81548160ff02191690831515021790555034801561003557600080fd5b50601260ff16600a0a6402540be40002600181905550601260ff16600a0a6402540be400026000803373ffffffffffffffffffffffffffffffffffffffff1673ffffffffffffffffffffffffffffffffffffffff168152602001908152602001600020819055506014600360006101000a81548160ff021916908360ff160217905550601e600360016101000a81548160ff021916908360ff1602179055506611c37937e0800060048190555033600560006101000a81548173ffffffffffffffffffffffffffffffffffffffff021916908373ffffffffffffffffffffffffffffffffffffffff16021790555033600660006101000a81548173ffffffffffffffffffffffffffffffffffffffff021916908373ffffffffffffffffffffffffffffffffffffffff1602179055503373ffffffffffffffffffffffffffffffffffffffff16600073ffffffffffffffffffffffffffffffffffffffff167fddf252ad1be2c89b69c2b068fc378daa952ba7f163c4a11628f55a4df523b3ef601260ff16600a0a6402540be400026040518082815260200191505060405180910390a3612559806101e76000396000f300608060405260043610610175576000357c0100000000000000000000000000000000000000000000000000000000900463ffffffff16806306fdde031461017a578063095ea7b31461020a5780630ae50a391461026f57806318160ddd146102c657806320784bf5146102f157806323b872dd1461031c5780632ff2e9dc146103a1578063313ce567146103cc57806333e41945146103fd5780633d4f5f7f146104455780634e7ffd791461048a57806366188463146104fe57806370a082311461056357806378aa11c5146105ba57806384654ae3146106185780638d289a711461064657806395d89b41146106755780639a9f0c8a14610705578063a9059cbb14610760578063b1a75652146107c5578063c84a8726146107f6578063ca741d681461084d578063d0898a0514610878578063d73dd623146108a3578063dd62ed3e14610908578063e000562e1461097f578063e33c8759146109b0578063f5df4cbd14610a0e578063fa2a9c7314610a56575b600080fd5b34801561018657600080fd5b5061018f610ab4565b6040518080602001828103825283818151815260200191508051906020019080838360005b838110156101cf5780820151818401526020810190506101b4565b50505050905090810190601f1680156101fc5780820380516001836020036101000a031916815260200191505b509250505060405180910390f35b34801561021657600080fd5b50610255600480360381019080803573ffffffffffffffffffffffffffffffffffffffff16906020019092919080359060200190929190505050610aed565b604051808215151515815260200191505060405180910390f35b34801561027b57600080fd5b50610284610b00565b604051808273ffffffffffffffffffffffffffffffffffffffff1673ffffffffffffffffffffffffffffffffffffffff16815260200191505060405180910390f35b3480156102d257600080fd5b506102db610b2a565b6040518082815260200191505060405180910390f35b3480156102fd57600080fd5b50610306610b34565b6040518082815260200191505060405180910390f35b34801561032857600080fd5b50610387600480360381019080803573ffffffffffffffffffffffffffffffffffffffff169060200190929190803573ffffffffffffffffffffffffffffffffffffffff16906020019092919080359060200190929190505050610b9a565b604051808215151515815260200191505060405180910390f35b3480156103ad57600080fd5b506103b6610baf565b6040518082815260200191505060405180910390f35b3480156103d857600080fd5b506103e1610bc1565b604051808260ff1660ff16815260200191505060405180910390f35b34801561040957600080fd5b5061042b600480360381019080803560ff169060200190929190505050610bc6565b604051808215151515815260200191505060405180910390f35b34801561045157600080fd5b5061047060048036038101908080359060200190929190505050610c44565b604051808215151515815260200191505060405180910390f35b34801561049657600080fd5b506104b560048036038101908080359060200190929190505050610ddd565b604051808373ffffffffffffffffffffffffffffffffffffffff1673ffffffffffffffffffffffffffffffffffffffff1681526020018281526020019250505060405180910390f35b34801561050a57600080fd5b50610549600480360381019080803573ffffffffffffffffffffffffffffffffffffffff16906020019092919080359060200190929190505050610e93565b604051808215151515815260200191505060405180910390f35b34801561056f57600080fd5b506105a4600480360381019080803573ffffffffffffffffffffffffffffffffffffffff169060200190929190505050611125565b6040518082815260200191505060405180910390f35b3480156105c657600080fd5b506105cf611137565b604051808373ffffffffffffffffffffffffffffffffffffffff1673ffffffffffffffffffffffffffffffffffffffff1681526020018281526020019250505060405180910390f35b6106446004803603810190808035906020019082018035906020019190919293919293905050506111f0565b005b34801561065257600080fd5b5061065b611322565b604051808215151515815260200191505060405180910390f35b34801561068157600080fd5b5061068a611335565b6040518080602001828103825283818151815260200191508051906020019080838360005b838110156106ca5780820151818401526020810190506106af565b50505050905090810190601f1680156106f75780820380516001836020036101000a031916815260200191505b509250505060405180910390f35b34801561071157600080fd5b50610746600480360381019080803573ffffffffffffffffffffffffffffffffffffffff16906020019092919050505061136e565b604051808215151515815260200191505060405180910390f35b34801561076c57600080fd5b506107ab600480360381019080803573ffffffffffffffffffffffffffffffffffffffff1690602001909291908035906020019092919050505061144e565b604051808215151515815260200191505060405180910390f35b3480156107d157600080fd5b506107da611461565b604051808260ff1660ff16815260200191505060405180910390f35b34801561080257600080fd5b5061080b6114d4565b604051808273ffffffffffffffffffffffffffffffffffffffff1673ffffffffffffffffffffffffffffffffffffffff16815260200191505060405180910390f35b34801561085957600080fd5b5061086261155a565b6040518082815260200191505060405180910390f35b34801561088457600080fd5b5061088d611579565b6040518082815260200191505060405180910390f35b3480156108af57600080fd5b506108ee600480360381019080803573ffffffffffffffffffffffffffffffffffffffff169060200190929190803590602001909291905050506115df565b604051808215151515815260200191505060405180910390f35b34801561091457600080fd5b50610969600480360381019080803573ffffffffffffffffffffffffffffffffffffffff169060200190929190803573ffffffffffffffffffffffffffffffffffffffff1690602001909291905050506117db565b6040518082815260200191505060405180910390f35b34801561098b57600080fd5b506109946117ee565b604051808260ff1660ff16815260200191505060405180910390f35b3480156109bc57600080fd5b506109c5611861565b604051808373ffffffffffffffffffffffffffffffffffffffff1673ffffffffffffffffffffffffffffffffffffffff1681526020018281526020019250505060405180910390f35b348015610a1a57600080fd5b50610a3c600480360381019080803560ff169060200190929190505050611aab565b604051808215151515815260200191505060405180910390f35b348015610a6257600080fd5b50610a6b611b29565b604051808373ffffffffffffffffffffffffffffffffffffffff1673ffffffffffffffffffffffffffffffffffffffff1681526020018281526020019250505060405180910390f35b6040805190810160405280600b81526020017f446f6e617465546f6b656e00000000000000000000000000000000000000000081525081565b6000610af98383611be2565b5092915050565b6000600560009054906101000a900473ffffffffffffffffffffffffffffffffffffffff16905090565b6000600154905090565b6000600560009054906101000a900473ffffffffffffffffffffffffffffffffffffffff1673ffffffffffffffffffffffffffffffffffffffff163373ffffffffffffffffffffffffffffffffffffffff16141515610b9257600080fd5b600854905090565b6000610ba7848484611cd4565b509392505050565b601260ff16600a0a6402540be4000281565b601281565b6000600560009054906101000a900473ffffffffffffffffffffffffffffffffffffffff1673ffffffffffffffffffffffffffffffffffffffff163373ffffffffffffffffffffffffffffffffffffffff16141515610c2457600080fd5b81600360006101000a81548160ff021916908360ff160217905550919050565b6000610c4e6124fd565b600083111515610c5d57600080fd5b6000803373ffffffffffffffffffffffffffffffffffffffff1673ffffffffffffffffffffffffffffffffffffffff168152602001908152602001600020548311151515610caa57600080fd5b60408051908101604052803373ffffffffffffffffffffffffffffffffffffffff16815260200184815250905060016009600082825401925050819055508060076000600954815260200190815260200160002060008201518160000160006101000a81548173ffffffffffffffffffffffffffffffffffffffff021916908373ffffffffffffffffffffffffffffffffffffffff16021790555060208201518160010155905050610d7e600560009054906101000a900473ffffffffffffffffffffffffffffffffffffffff168461144e565b503373ffffffffffffffffffffffffffffffffffffffff167f15aedf11553e87ebb5f512bc353921d92a31a3906c5a8b42e0eb5f6bf0c3f48484600954604051808381526020018281526020019250505060405180910390a250919050565b600080600560009054906101000a900473ffffffffffffffffffffffffffffffffffffffff1673ffffffffffffffffffffffffffffffffffffffff163373ffffffffffffffffffffffffffffffffffffffff16141515610e3c57600080fd5b6007600084815260200190815260200160002060000160009054906101000a900473ffffffffffffffffffffffffffffffffffffffff16600760008581526020019081526020016000206001015491509150915091565b600080600260003373ffffffffffffffffffffffffffffffffffffffff1673ffffffffffffffffffffffffffffffffffffffff16815260200190815260200160002060008573ffffffffffffffffffffffffffffffffffffffff1673ffffffffffffffffffffffffffffffffffffffff1681526020019081526020016000205490508083101515610fa5576000600260003373ffffffffffffffffffffffffffffffffffffffff1673ffffffffffffffffffffffffffffffffffffffff16815260200190815260200160002060008673ffffffffffffffffffffffffffffffffffffffff1673ffffffffffffffffffffffffffffffffffffffff16815260200190815260200160002081905550611039565b610fb8838261208f90919063ffffffff16565b600260003373ffffffffffffffffffffffffffffffffffffffff1673ffffffffffffffffffffffffffffffffffffffff16815260200190815260200160002060008673ffffffffffffffffffffffffffffffffffffffff1673ffffffffffffffffffffffffffffffffffffffff168152602001908152602001600020819055505b8373ffffffffffffffffffffffffffffffffffffffff163373ffffffffffffffffffffffffffffffffffffffff167f8c5be1e5ebec7d5bd14f71427d1e84f3dd0314c0f7b2291e5b200ac8c7c3b925600260003373ffffffffffffffffffffffffffffffffffffffff1673ffffffffffffffffffffffffffffffffffffffff16815260200190815260200160002060008873ffffffffffffffffffffffffffffffffffffffff1673ffffffffffffffffffffffffffffffffffffffff168152602001908152602001600020546040518082815260200191505060405180910390a3600191505092915050565b6000611130826120a8565b9050919050565b600080600560009054906101000a900473ffffffffffffffffffffffffffffffffffffffff1673ffffffffffffffffffffffffffffffffffffffff163373ffffffffffffffffffffffffffffffffffffffff1614151561119657600080fd5b60076000600954815260200190815260200160002060000160009054906101000a900473ffffffffffffffffffffffffffffffffffffffff1660076000600954815260200190815260200160002060010154915091509091565b6000806000600454341015151561120657600080fd5b34925082915061121633836120f0565b506064600360009054906101000a900460ff1660ff16840281151561123757fe5b049050600660009054906101000a900473ffffffffffffffffffffffffffffffffffffffff1673ffffffffffffffffffffffffffffffffffffffff166108fc829081150290604051600060405180830381858888f193505050501580156112a2573d6000803e3d6000fd5b503373ffffffffffffffffffffffffffffffffffffffff167f48287cf0da561e0b804f1aaaffb3bcbdf1e64f75838fa62147c854e3abc7ba2f868634866040518080602001848152602001838152602001828103825286868281815260200192508082843782019150509550505050505060405180910390a25050505050565b600a60009054906101000a900460ff1681565b6040805190810160405280600481526020017f444f4e650000000000000000000000000000000000000000000000000000000081525081565b6000600560009054906101000a900473ffffffffffffffffffffffffffffffffffffffff1673ffffffffffffffffffffffffffffffffffffffff163373ffffffffffffffffffffffffffffffffffffffff161415156113cc57600080fd5b600073ffffffffffffffffffffffffffffffffffffffff168273ffffffffffffffffffffffffffffffffffffffff161415151561140857600080fd5b81600660006101000a81548173ffffffffffffffffffffffffffffffffffffffff021916908373ffffffffffffffffffffffffffffffffffffffff160217905550919050565b600061145a838361223a565b5092915050565b6000600560009054906101000a900473ffffffffffffffffffffffffffffffffffffffff1673ffffffffffffffffffffffffffffffffffffffff163373ffffffffffffffffffffffffffffffffffffffff161415156114bf57600080fd5b600360009054906101000a900460ff16905090565b6000600560009054906101000a900473ffffffffffffffffffffffffffffffffffffffff1673ffffffffffffffffffffffffffffffffffffffff163373ffffffffffffffffffffffffffffffffffffffff1614151561153257600080fd5b600660009054906101000a900473ffffffffffffffffffffffffffffffffffffffff16905090565b60003073ffffffffffffffffffffffffffffffffffffffff1631905090565b6000600560009054906101000a900473ffffffffffffffffffffffffffffffffffffffff1673ffffffffffffffffffffffffffffffffffffffff163373ffffffffffffffffffffffffffffffffffffffff161415156115d757600080fd5b600954905090565b600061167082600260003373ffffffffffffffffffffffffffffffffffffffff1673ffffffffffffffffffffffffffffffffffffffff16815260200190815260200160002060008673ffffffffffffffffffffffffffffffffffffffff1673ffffffffffffffffffffffffffffffffffffffff1681526020019081526020016000205461245a90919063ffffffff16565b600260003373ffffffffffffffffffffffffffffffffffffffff1673ffffffffffffffffffffffffffffffffffffffff16815260200190815260200160002060008573ffffffffffffffffffffffffffffffffffffffff1673ffffffffffffffffffffffffffffffffffffffff168152602001908152602001600020819055508273ffffffffffffffffffffffffffffffffffffffff163373ffffffffffffffffffffffffffffffffffffffff167f8c5be1e5ebec7d5bd14f71427d1e84f3dd0314c0f7b2291e5b200ac8c7c3b925600260003373ffffffffffffffffffffffffffffffffffffffff1673ffffffffffffffffffffffffffffffffffffffff16815260200190815260200160002060008773ffffffffffffffffffffffffffffffffffffffff1673ffffffffffffffffffffffffffffffffffffffff168152602001908152602001600020546040518082815260200191505060405180910390a36001905092915050565b60006117e78383612476565b5092915050565b6000600560009054906101000a900473ffffffffffffffffffffffffffffffffffffffff1673ffffffffffffffffffffffffffffffffffffffff163373ffffffffffffffffffffffffffffffffffffffff1614151561184c57600080fd5b600360019054906101000a900460ff16905090565b60008061186c6124fd565b6000600560009054906101000a900473ffffffffffffffffffffffffffffffffffffffff1673ffffffffffffffffffffffffffffffffffffffff163373ffffffffffffffffffffffffffffffffffffffff161415156118ca57600080fd5b600854600954101515156118dd57600080fd5b6007600060085481526020019081526020016000206040805190810160405290816000820160009054906101000a900473ffffffffffffffffffffffffffffffffffffffff1673ffffffffffffffffffffffffffffffffffffffff1673ffffffffffffffffffffffffffffffffffffffff16815260200160018201548152505091506064600360019054906101000a900460ff1660ff1683602001510281151561198357fe5b048260200151019050816000015173ffffffffffffffffffffffffffffffffffffffff166108fc829081150290604051600060405180830381858888f193505050501580156119d6573d6000803e3d6000fd5b50600760006008548152602001908152602001600020600080820160006101000a81549073ffffffffffffffffffffffffffffffffffffffff0219169055600182016000905550506001600860008282540192505081905550816000015173ffffffffffffffffffffffffffffffffffffffff167fb7a5bd0c2114f6cda9f1a6df2d4d1cf558f8e064d0f32e9c657050d2e822d84483602001518360085460405180848152602001838152602001828152602001935050505060405180910390a2816000015182602001519350935050509091565b6000600560009054906101000a900473ffffffffffffffffffffffffffffffffffffffff1673ffffffffffffffffffffffffffffffffffffffff163373ffffffffffffffffffffffffffffffffffffffff16141515611b0957600080fd5b81600360016101000a81548160ff021916908360ff160217905550919050565b600080600560009054906101000a900473ffffffffffffffffffffffffffffffffffffffff1673ffffffffffffffffffffffffffffffffffffffff163373ffffffffffffffffffffffffffffffffffffffff16141515611b8857600080fd5b60076000600854815260200190815260200160002060000160009054906101000a900473ffffffffffffffffffffffffffffffffffffffff1660076000600854815260200190815260200160002060010154915091509091565b600081600260003373ffffffffffffffffffffffffffffffffffffffff1673ffffffffffffffffffffffffffffffffffffffff16815260200190815260200160002060008573ffffffffffffffffffffffffffffffffffffffff1673ffffffffffffffffffffffffffffffffffffffff168152602001908152602001600020819055508273ffffffffffffffffffffffffffffffffffffffff163373ffffffffffffffffffffffffffffffffffffffff167f8c5be1e5ebec7d5bd14f71427d1e84f3dd0314c0f7b2291e5b200ac8c7c3b925846040518082815260200191505060405180910390a36001905092915050565b60008060008573ffffffffffffffffffffffffffffffffffffffff1673ffffffffffffffffffffffffffffffffffffffff168152602001908152602001600020548211151515611d2357600080fd5b600260008573ffffffffffffffffffffffffffffffffffffffff1673ffffffffffffffffffffffffffffffffffffffff16815260200190815260200160002060003373ffffffffffffffffffffffffffffffffffffffff1673ffffffffffffffffffffffffffffffffffffffff168152602001908152602001600020548211151515611dae57600080fd5b600073ffffffffffffffffffffffffffffffffffffffff168373ffffffffffffffffffffffffffffffffffffffff1614151515611dea57600080fd5b611e3b826000808773ffffffffffffffffffffffffffffffffffffffff1673ffffffffffffffffffffffffffffffffffffffff1681526020019081526020016000205461208f90919063ffffffff16565b6000808673ffffffffffffffffffffffffffffffffffffffff1673ffffffffffffffffffffffffffffffffffffffff16815260200190815260200160002081905550611ece826000808673ffffffffffffffffffffffffffffffffffffffff1673ffffffffffffffffffffffffffffffffffffffff1681526020019081526020016000205461245a90919063ffffffff16565b6000808573ffffffffffffffffffffffffffffffffffffffff1673ffffffffffffffffffffffffffffffffffffffff16815260200190815260200160002081905550611f9f82600260008773ffffffffffffffffffffffffffffffffffffffff1673ffffffffffffffffffffffffffffffffffffffff16815260200190815260200160002060003373ffffffffffffffffffffffffffffffffffffffff1673ffffffffffffffffffffffffffffffffffffffff1681526020019081526020016000205461208f90919063ffffffff16565b600260008673ffffffffffffffffffffffffffffffffffffffff1673ffffffffffffffffffffffffffffffffffffffff16815260200190815260200160002060003373ffffffffffffffffffffffffffffffffffffffff1673ffffffffffffffffffffffffffffffffffffffff168152602001908152602001600020819055508273ffffffffffffffffffffffffffffffffffffffff168473ffffffffffffffffffffffffffffffffffffffff167fddf252ad1be2c89b69c2b068fc378daa952ba7f163c4a11628f55a4df523b3ef846040518082815260200191505060405180910390a3600190509392505050565b600082821115151561209d57fe5b818303905092915050565b60008060008373ffffffffffffffffffffffffffffffffffffffff1673ffffffffffffffffffffffffffffffffffffffff168152602001908152602001600020549050919050565b6000808211151561210057600080fd5b600073ffffffffffffffffffffffffffffffffffffffff168373ffffffffffffffffffffffffffffffffffffffff161415151561213c57600080fd5b61218d826000808673ffffffffffffffffffffffffffffffffffffffff1673ffffffffffffffffffffffffffffffffffffffff1681526020019081526020016000205461245a90919063ffffffff16565b6000808573ffffffffffffffffffffffffffffffffffffffff1673ffffffffffffffffffffffffffffffffffffffff168152602001908152602001600020819055508273ffffffffffffffffffffffffffffffffffffffff163073ffffffffffffffffffffffffffffffffffffffff167fddf252ad1be2c89b69c2b068fc378daa952ba7f163c4a11628f55a4df523b3ef846040518082815260200191505060405180910390a392915050565b60008060003373ffffffffffffffffffffffffffffffffffffffff1673ffffffffffffffffffffffffffffffffffffffff16815260200190815260200160002054821115151561228957600080fd5b600073ffffffffffffffffffffffffffffffffffffffff168373ffffffffffffffffffffffffffffffffffffffff16141515156122c557600080fd5b612316826000803373ffffffffffffffffffffffffffffffffffffffff1673ffffffffffffffffffffffffffffffffffffffff1681526020019081526020016000205461208f90919063ffffffff16565b6000803373ffffffffffffffffffffffffffffffffffffffff1673ffffffffffffffffffffffffffffffffffffffff168152602001908152602001600020819055506123a9826000808673ffffffffffffffffffffffffffffffffffffffff1673ffffffffffffffffffffffffffffffffffffffff1681526020019081526020016000205461245a90919063ffffffff16565b6000808573ffffffffffffffffffffffffffffffffffffffff1673ffffffffffffffffffffffffffffffffffffffff168152602001908152602001600020819055508273ffffffffffffffffffffffffffffffffffffffff163373ffffffffffffffffffffffffffffffffffffffff167fddf252ad1be2c89b69c2b068fc378daa952ba7f163c4a11628f55a4df523b3ef846040518082815260200191505060405180910390a36001905092915050565b6000818301905082811015151561246d57fe5b80905092915050565b6000600260008473ffffffffffffffffffffffffffffffffffffffff1673ffffffffffffffffffffffffffffffffffffffff16815260200190815260200160002060008373ffffffffffffffffffffffffffffffffffffffff1673ffffffffffffffffffffffffffffffffffffffff16815260200190815260200160002054905092915050565b6040805190810160405280600073ffffffffffffffffffffffffffffffffffffffff1681526020016000815250905600a165627a7a72305820c5bccf50c317c635acaae4a48e1a079b8804d0b6c00726f1f4daebcb9326e3a30029",
  "source": "//pragma solidity >=0.4.25 <0.6.0;\r\npragma solidity >=0.4.24 <0.6.0;\r\n\r\nimport './ERC20/StandardToken.sol';\r\nimport './ownership/Ownable.sol';\r\n//import './ERC20/BasicToken.sol';\r\ncontract DonToken is StandardToken  {\r\n\r\n    string public constant name = \"DonateToken\";\r\n    string public constant symbol = \"DONe\";\r\n    uint8 public constant decimals = 18;\r\n\r\n    uint8 private percentserverfee;\r\n    uint8 private exchangeETHpercent;\r\n    \r\n    uint256 private minimumsendeth;\r\n\r\n    uint256 public constant INITIAL_SUPPLY = 10000000000 * (10 ** uint256(decimals));\r\n    /*\r\n    uint public INITIAL_SUPPLY = 21000000000;\r\n    string public name = 'DonateToken';\r\n    string public symbol = 'ANG';\r\n    uint8 public decimals = 8;\r\n    */\r\n    address owner;\r\n    address servermanager;\r\n     \r\n    struct ExchangeUserInfo {\r\n  \r\n        address    user;\r\n        uint256    token;\r\n       \r\n    }\r\n\r\n    mapping(uint256 => ExchangeUserInfo) ExchangeUserQueue;\r\n    uint256 first = 1;\r\n    uint256 last = 0;\r\n    //ExchangeUserInfo[] public ExchangeUserList;\r\n\r\n    \r\n    event ev_DonateWithMessage(address indexed _sender , string _message , uint256 _value , uint256 _token);\r\n    event ev_RequestExchangeToETH(address indexed _sender, uint256 _value , uint _id);\r\n    event ev_PopExchangeUserFirst(address indexed _sender, uint256 _value, uint256 _exchangevalue ,  uint256 _id);\r\n    //address owner; owanble   ?\r\n    bool public tradeYN = true;\r\n    \r\n    constructor() public {\r\n        totalSupply_ = INITIAL_SUPPLY;\r\n        balances[msg.sender] = INITIAL_SUPPLY;\r\n        percentserverfee = 20; // \r\n        exchangeETHpercent = 30; //  ETHER    %\r\n        minimumsendeth = 5000000000000000;  //0.005 ether , 5000000 gwei , 5000000000000000 wei\r\n        owner = msg.sender;\r\n        servermanager = msg.sender;\r\n        //owner = msg.sender;  owanble   ?\r\n        emit Transfer(address(0), msg.sender, INITIAL_SUPPLY);\r\n    } \r\n\r\n \r\n    modifier onlyOwner() {\r\n        require(msg.sender == owner);\r\n        _;\r\n    }\r\n\r\n    function GetOwner() public view returns (address) {\r\n        // super.balanceOf(_owner);\r\n        return owner;\r\n    }\r\n\r\n    function Getpercentserverfee() public onlyOwner view returns (uint8) {\r\n        // super.balanceOf(_owner);\r\n        return percentserverfee;\r\n    }\r\n\r\n    function Setpercentserverfee(uint8 percent) public onlyOwner returns (bool){  //Only Owner\r\n        percentserverfee = percent;\r\n    }\r\n\r\n    function GetexchangeETHpercent() public onlyOwner view returns (uint8) {\r\n        // super.balanceOf(_owner);\r\n        return exchangeETHpercent;\r\n    }\r\n\r\n    function SetexchangeETHpercent(uint8 percent) public onlyOwner returns (bool){  //Only Owner\r\n        exchangeETHpercent = percent;\r\n    }\r\n\r\n\r\n\r\n\r\n    function GetServerManager() public view onlyOwner returns (address) {\r\n        // super.balanceOf(_owner);\r\n        return servermanager;\r\n    }\r\n\r\n    function ChangeServerManager(address _newmanager) public onlyOwner returns (bool) {\r\n        require(_newmanager != address(0));\r\n        servermanager = _newmanager;\r\n    }\r\n\r\n    \r\n    function balanceOf(address _owner) public view returns (uint256) {\r\n        return super.balanceOf(_owner);\r\n        //return balances[_owner];\r\n    }\r\n\r\n    function DonateWithMessage(string message) external payable {\r\n       // require(!closed);\r\n\r\n        // require msg.value 0  \r\n        require(msg.value >= minimumsendeth); //   eth   \r\n        uint256 amount = msg.value;\r\n       \r\n        //uint256 tokencnt = amount.div(10); //  ether  10      ?\r\n        uint256 tokencnt = amount;\r\n\r\n        // token \r\n        \r\n        //token.TokenAdd(msg.sender  , tokencnt);\r\n        //transferfromowner(msg.sender , tokencnt);\r\n        AddTokenToDonator(msg.sender , tokencnt);\r\n        //token.transfertoken(msg.sender , tokencnt); //    owner      \r\n        //token.transferFrom(contractowner , msg.sender , tokencnt); //    owner      \r\n        //token.approve(contractowner , tokencnt);\r\n\r\n        //token.transferFrom(contractowner , msg.sender , tokencnt);\r\n\r\n        uint256 serverfee = (amount * percentserverfee) / 100;  //  30%  \r\n        \r\n        servermanager.transfer(serverfee); //  owner  \r\n        \r\n        emit ev_DonateWithMessage( msg.sender , message , msg.value , tokencnt);\r\n    }\r\n\r\n    /*\r\n    function tokenadd(address _to , uint256 _value) public returns (bool) {\r\n        balances[_to] += _value;\r\n        return true;\r\n    }\r\n    *?\r\n    /*\r\n    function tokenminus(_to, _value);(address _to , uint256 _value) public returns (bool) {\r\n        balances[_to] -= _value;\r\n        return true;\r\n    }\r\n    */\r\n     function transfer(address to, uint256 value) public returns (bool) {\r\n        //emit Transfer(msg.sender, to, value);\r\n        super.transfer(to, value);\r\n    }\r\n    \r\n    /* token  owner   */\r\n    /*\r\n    function transferfromowner(address _to, uint256 _value) private returns (bool) {\r\n        require(_value <= balances[owner]);\r\n        require(_to != address(0));\r\n\r\n        balances[owner] = balances[owner].sub(_value);\r\n        balances[_to] = balances[_to].add(_value);\r\n        emit Transfer(owner, _to, _value);\r\n    \r\n    }\r\n    */\r\n    /*    */\r\n    function AddTokenToDonator(address _to, uint256 _value) private returns (bool) {\r\n        //require(_value <= balances[owner]);\r\n        require(_value > 0);\r\n        require(_to != address(0));\r\n\r\n        //balances[owner] = balances[owner].sub(_value);\r\n        balances[_to] = balances[_to].add(_value);\r\n        emit Transfer(address(this), _to, _value);\r\n    \r\n    }\r\n\r\n    function RequestExchangeToETH(uint256 _value) public returns (bool) {\r\n\r\n        require(_value > 0); // token      ? \r\n        require(_value <= balances[msg.sender]); //   token   _value    \r\n\r\n        ExchangeUserInfo memory exinfo = ExchangeUserInfo(msg.sender, _value);\r\n\r\n        //enqueue\r\n        \r\n        last += 1;\r\n        ExchangeUserQueue[last] = exinfo;\r\n\r\n        transfer(owner , _value);\r\n\r\n        emit ev_RequestExchangeToETH(msg.sender, _value , last);\r\n\r\n    }\r\n    \r\n    \r\n    function GetExchangeUser(uint _id) public view onlyOwner returns (address , uint256) {\r\n        return (ExchangeUserQueue[_id].user , ExchangeUserQueue[_id].token);\r\n\r\n    }\r\n\r\n    //  array   \r\n    function GetExchangeUserLastIdx() public view onlyOwner returns (uint256) {\r\n        return last;\r\n\r\n    }\r\n\r\n    function GetExchangeUserFirstIdx() public view onlyOwner returns (uint256) {\r\n        return first;\r\n\r\n    }\r\n\r\n    function GetExchangeUserFirst() public view onlyOwner returns (address , uint256) {\r\n      return (ExchangeUserQueue[first].user , ExchangeUserQueue[first].token);\r\n   }\r\n\r\n    function GetExchangeUserLast() public view onlyOwner returns (address , uint256) {\r\n      return (ExchangeUserQueue[last].user , ExchangeUserQueue[last].token);\r\n   }\r\n\r\n    function PopExchangeUserFirst() public onlyOwner returns (address , uint256){  //Only Owner \r\n        require(last >= first);  // non-empty queue\r\n        \r\n        ExchangeUserInfo memory exinfo = ExchangeUserQueue[first];\r\n        //data = ExchangeUserQueue[first];\r\n\r\n        \r\n        uint256 exchangeETH = exinfo.token  + (exinfo.token * exchangeETHpercent) / 100;  //  30%  \r\n\r\n        exinfo.user.transfer(exchangeETH);\r\n        // data  user , token  user  contract  ether \r\n        delete ExchangeUserQueue[first];\r\n        first += 1;\r\n        \r\n        emit ev_PopExchangeUserFirst(exinfo.user, exinfo.token , exchangeETH , first);\r\n        return (exinfo.user , exinfo.token);\r\n        //return ExchangeUserList;\r\n   }\r\n\r\n\r\n    /*\r\n    function RequestExchangeToETH(uint256 _value) public returns (bool) {\r\n\r\n      require(_value > 0); // token      ? \r\n      require(_value <= balances[msg.sender]); //   token   _value    \r\n\r\n      ExchangeUserInfo memory exinfo = ExchangeUserInfo(msg.sender, _value);\r\n      uint id = ExchangeUserList.push(exinfo);\r\n     \r\n      transfer(owner , _value);\r\n\r\n      emit ev_RequestExchangeToETH(msg.sender, _value , id);\r\n\r\n    }\r\n    */\r\n    //     struct array \r\n    /*\r\n    function GetExchangeUser(uint _id) public view returns (address , uint256) {\r\n        return (ExchangeUserList[_id].user , ExchangeUserList[_id].token);\r\n\r\n    }\r\n\r\n    //  array   \r\n    function GetExchangeUserMaxLength() public view returns (uint) {\r\n        return ExchangeUserList.length;\r\n\r\n    }\r\n    \r\n   \r\n   function GetExchangeUserFirst() public view returns (address , uint256) {\r\n      return (ExchangeUserList[0].user , ExchangeUserList[0].token);\r\n   }\r\n\r\n    function GetExchangeUserLast() public view returns (address , uint256) {\r\n      return (ExchangeUserList[ExchangeUserList.length-1].user , ExchangeUserList[ExchangeUserList.length-1].token);\r\n   }\r\n\r\n   function PopExchangeUser() public returns (address , uint256){\r\n      address addruser = ExchangeUserList[ExchangeUserList.length-1].user;\r\n      uint tokenuser = ExchangeUserList[ExchangeUserList.length-1].token;\r\n      delete ExchangeUserList[ExchangeUserList.length-1];\r\n      ExchangeUserList.length--;\r\n      return (addruser , tokenuser);\r\n      //return ExchangeUserList;\r\n   }\r\n\r\n   function PopExchangeUserFirst() public returns (address , uint256){\r\n      address addruser = ExchangeUserList[0].user;\r\n      uint tokenuser = ExchangeUserList[0].token;\r\n      delete ExchangeUserList[0];\r\n      ExchangeUserList.length--;\r\n      return (addruser , tokenuser);\r\n      //return ExchangeUserList;\r\n   }\r\n*/\r\n/*\r\n    //    \r\n   function GetExchangeUserAll()  public view returns (ExchangeUserInfo[]) {\r\n      return ExchangeUserList;\r\n   }\r\n*/\r\n\r\n     function getNowDonateValue() public returns(uint256) {\r\n        return   address(this).balance;\r\n    }\r\n\r\n    \r\n    \r\n    function allowance(address _owner, address spender) public  view returns (uint256) { //onlyTradeY\r\n        super.allowance(_owner, spender);\r\n    }\r\n\r\n    function transferFrom(address from, address to, uint256 value) public  returns (bool) { //onlyTradeY\r\n        super.transferFrom(from, to, value);\r\n    }\r\n\r\n    function approve(address spender, uint256 value) public  returns (bool) { //onlyTradeY\r\n        super.approve(spender, value);\r\n    }\r\n    \r\n    \r\n    /*\r\n    function transfertoken(address _to, uint256 _value) public returns (bool) {\r\n    //require(_value <= balances[msg.sender]);\r\n    //require(_to != address(0));\r\n    emit Transfer(msg.sender, _to, _value);\r\n    //balances[msg.sender] = balances[msg.sender].sub(_value);\r\n    //balances[_to] = balances[_to].add(_value);\r\n    //emit Transfer(msg.sender, _to, _value);\r\n    return true;\r\n  }\r\n*/\r\n    /*\r\n    function changeTradeY() public returns(bool){\r\n        require(owner == msg.sender);\r\n        require(!tradeYN);\r\n        tradeYN = true;\r\n        return tradeYN;\r\n    }\r\n\r\n    function changeTradeN() public returns(bool){\r\n        require(owner == msg.sender);\r\n        require(tradeYN);\r\n        tradeYN = false;\r\n        return tradeYN;\r\n    }\r\n    */\r\n    /*\r\n    modifier onlyTradeY() {\r\n        require(tradeYN);\r\n        _;\r\n    }\r\n*/\r\n    \r\n    \r\n}",
  "sourcePath": "D:\\WorkSpace\\ETH\\DonFromEtherProject\\contracts\\DonToken.sol",
  "compiler": {
    "name": "solc",
    "version": "0.4.24+commit.e67f0147.Emscripten.clang"
  },
  "schemaVersion": "3.0.6",
  "updatedAt": "2019-06-04T12:17:40.908Z",
  "devdoc": {
    "methods": {
      "decreaseApproval(address,uint256)": {
        "details": "Decrease the amount of tokens that an owner allowed to a spender. approve should be called when allowed[_spender] == 0. To decrement allowed value is better to use this function to avoid 2 calls (and wait until the first transaction is mined) From MonolithDAO Token.sol",
        "params": {
          "_spender": "The address which will spend the funds.",
          "_subtractedValue": "The amount of tokens to decrease the allowance by."
        }
      },
      "increaseApproval(address,uint256)": {
        "details": "Increase the amount of tokens that an owner allowed to a spender. approve should be called when allowed[_spender] == 0. To increment allowed value is better to use this function to avoid 2 calls (and wait until the first transaction is mined) From MonolithDAO Token.sol",
        "params": {
          "_addedValue": "The amount of tokens to increase the allowance by.",
          "_spender": "The address which will spend the funds."
        }
      },
      "totalSupply()": {
        "details": "Total number of tokens in existence"
      }
    }
  },
  "userdoc": {
    "methods": {}
  }
}